:100000000C94DB000C9403010C9403010C94580431
:100010000C9458040C9458040C9403010C940301A0
:100020000C9403010C9403010C9403010C94030140
:100030000C9403010C9403010C9403010C94030130
:100040000C94B6030C9403010C9426040C94000445
:100050000C9403010C9403010C9403010C94030110
:100060000C9403010C94030100407A10F35A00A091
:10007000724E18090010A5D4E80000E87648170071
:1000800000E40B54020000CA9A3B000000E1F505B1
:10009000000080969800000040420F000000A086FB
:1000A00001000000102700000000E803000000002D
:1000B0006400000000000A000000000001000000D1
:1000C00000002C76D888DC674F0823DFC1DFAE59EB
:1000D000E1B1B796E5E3E453C63AE651997696E87E
:1000E000E6C28426EB898C9B62ED407C6FFCEFBC02
:1000F0009C9F40F2BAA56FA5F490055A2AF75C932D
:100100006B6CF9676DC11BFCE0E40D47FEF520E662
:10011000B500D0ED902E0300943577050080841E45
:10012000080000204E0A000000C80C333333330FA0
:10013000986E12831141EF8D2114893BE65516CF3D
:10014000FEE6DB18D1844B381BF77C1D901DA4BB49
:10015000E424203284725E228100C9F124ECA1E5FE
:100160003D2700000000240027002A0000000000B6
:10017000250028002B0004040404040404040202E3
:100180000202020203030303030301020408102016
:100190004080010204081020010204081020000021
:1001A0000008000201000003040700000000000036
:1001B00000006204F30611241FBECFEFD8E0DEBFBB
:1001C000CDBF11E0A0E0B1E0EAECFBE102C0059098
:1001D0000D92AC34B107D9F721E0ACE4B1E001C035
:1001E0001D92AF3FB207E1F710E0CAEDD0E004C0C6
:1001F0002197FE010E94D70BC93DD107C9F70E9484
:100200009D040C94D80D0C940000E7EAF1E02491D1
:10021000E3E9F1E09491EFE7F1E0E491EE23C9F036
:10022000222339F0233001F1A8F4213019F12230D2
:1002300029F1F0E0EE0FFF1FE459FE4FA591B491B4
:100240002FB7F894EC91811126C090959E239C9332
:100250002FBF08952730A9F02830C9F0243049F77E
:10026000209180002F7D03C0209180002F77209364
:100270008000DFCF24B52F7724BDDBCF24B52F7DC1
:10028000FBCF2091B0002F772093B000D2CF2091E8
:10029000B0002F7DF9CF9E2BDACF3FB7F894809135
:1002A000540190915501A0915601B091570126B586
:1002B000A89B05C02F3F19F00196A11DB11D3FBF9E
:1002C000BA2FA92F982F8827BC01CD01620F711D6D
:1002D000811D911D42E0660F771F881F991F4A9567
:1002E000D1F708958F929F92AF92BF92CF92DF92F3
:1002F000EF92FF924B015C010E944D016B017C016A
:100300000E944D016C197D098E099F09683E73405A
:1003100081059105A8F321E0821A9108A108B1088E
:1003200088EEC80E83E0D81EE11CF11C81149104F4
:10033000A104B10429F7FF90EF90DF90CF90BF9018
:10034000AF909F908F900895AF92BF92CF92DF921F
:10035000EF92FF920F931F93CF93DF936C017B017A
:100360008B01040F151FEB015E01AE18BF08C0170B
:10037000D10759F06991D601ED91FC910190F0817E
:10038000E02DC6010995892B79F7C501DF91CF9141
:100390001F910F91FF90EF90DF90CF90BF90AF90A3
:1003A0000895FC01538D448D252F30E0842F90E07B
:1003B000821B930B541710F0CF9608950197089560
:1003C000FC01918D828D981761F0A28DAE0FBF2F29
:1003D000B11D5D968C91928D9F5F9F73928F90E07F
:1003E00008958FEF9FEF0895FC01918D828D9817EE
:1003F00031F0828DE80FF11D858D90E008958FEF2B
:100400009FEF0895FC01918D228D892F90E0805CF3
:100410009F4F821B91098F739927089588E591E07A
:100420000E94020221E0892B09F420E0822F089526
:1004300080E090E0892B29F00E940E0281110C943B
:1004400000000895FC01A48DA80FB92FB11DA35A77
:10045000BF4F2C91848D90E001968F739927848FE4
:10046000A689B7892C93A089B1898C918370806407
:100470008C93938D848D981306C00288F389E02DA8
:1004800080818F7D80830895EF92FF920F931F9359
:10049000CF93DF93EC0181E0888F9B8D8C8D981337
:1004A0001AC0E889F989808185FF15C09FB7F89443
:1004B000EE89FF896083E889F9898081837080648F
:1004C00080839FBF81E090E0DF91CF911F910F91DA
:1004D000FF90EF900895F62E0B8D10E00F5F1F4FE9
:1004E0000F731127E02E8C8D8E110CC00FB607FCF8
:1004F000FACFE889F989808185FFF5CFCE010E9486
:100500002202F1CFEB8DEC0FFD2FF11DE35AFF4FCF
:10051000F0829FB7F8940B8FEA89FB898081806213
:10052000CFCFCF93DF93EC01888D8823B9F0AA89D0
:10053000BB89E889F9898C9185FD03C0808186FD9E
:100540000DC00FB607FCF7CF8C9185FFF2CF8081ED
:1005500085FFEDCFCE010E942202E9CFDF91CF913E
:100560000895FC0101900020E9F73197AF01481B85
:10057000590BBC0188E591E00C94A401CF93DF9363
:10058000EC0188819981009711F00E94790C198201
:1005900018821D821C821B821A82DF91CF910895DE
:1005A000FC0180819181009711F00C94790C0895E1
:1005B0000F931F93CF93DF93EC018881998100976C
:1005C00059F02A813B812617370730F081E0DF910F
:1005D000CF911F910F9108958B016F5F7F4F0E9404
:1005E000020D009759F0998388831B830A832C811D
:1005F0003D81232B59F7FC011082E8CF80E0E7CF43
:10060000EF92FF920F931F93CF93DF9361157105C4
:1006100041F480E0DF91CF911F910F91FF90EF9017
:10062000089541155105B1F07B01EC010C811D814C
:10063000040F151FB8010E94D802882351F32881A6
:1006400039818C819D81B701820F931F0E94D10D4A
:100650001D830C8381E0DECFCF93DF93EC01FB01A0
:1006600001900020E9F73197AF01461B570B0E941C
:100670000003811103C0CE010E94BE02CE01DF91B2
:10068000CF910895CF93DF93EC01FB014481558115
:10069000608171810E940003811103C0CE010E941C
:1006A000BE02CE01DF91CF910895EF92FF920F939A
:1006B0001F93CF93DF93EC017B018A01BA010E9463
:1006C000D80281110BC0CE010E94BE02CE01DF9183
:1006D000CF911F910F91FF90EF9008951D830C8390
:1006E000B701888199810E94D10DF0CFFB01019063
:1006F0000020E9F73197AF01461B570B0C945503C7
:10070000EF92FF920F931F93CF93DF93CDB7DEB796
:10071000A1970FB6F894DEBF0FBECDBF7C01CB0111
:10072000BA01F7011182108213821282158214829B
:100730008E010F5F1F4F22E044E00E94F7060097F2
:1007400089F0BC01C7010E947603A1960FB6F89408
:10075000DEBF0FBECDBFDF91CF911F910F91FF90F4
:10076000EF900895C7010E94BE02EFCF1F920F9233
:100770000FB60F9211242F933F938F939F93AF93B4
:10078000BF938091500190915101A0915201B0917D
:10079000530130914F0123E0230F2D3758F5019677
:1007A000A11DB11D20934F018093500190935101E1
:1007B000A0935201B093530180915401909155013F
:1007C000A0915601B09157010196A11DB11D8093D2
:1007D000540190935501A0935601B0935701BF91D6
:1007E000AF919F918F913F912F910F900FBE0F90DE
:1007F0001F90189526E8230F0296A11DB11DD2CF98
:100800001F920F920FB60F9211242F933F934F9385
:100810005F936F937F938F939F93AF93BF93EF9368
:10082000FF9388E591E00E942202FF91EF91BF9132
:10083000AF919F918F917F916F915F914F913F9178
:100840002F910F900FBE0F901F9018951F920F922F
:100850000FB60F9211242F938F939F93EF93FF93D3
:10086000E0916801F09169018081E0916E01F09161
:100870006F0182FD1BC09081809171018F5F8F732A
:1008800020917201821741F0E0917101F0E0E85A85
:10089000FE4F958F80937101FF91EF919F918F9102
:1008A0002F910F900FBE0F901F9018958081F4CF5D
:1008B0001F920F920FB60F9211240F900FBE0F9040
:1008C0001F901895E8E5F1E01382128288EE93E01C
:1008D000A0E0B0E084839583A683B78380E191E0B4
:1008E0009183808385EC90E09587848784EC90E009
:1008F0009787868780EC90E0918B808B81EC90E0ED
:10090000938B828B82EC90E0958B848B86EC90E0CD
:10091000978B868B118E128E138E148EE5EFF1E07D
:1009200011821082138212821582148250E040E0FC
:100930006FE271E0CF010C945503CF93DF93CDB7F5
:10094000DEB7AB970FB6F894DEBF0FBECDBF78947D
:1009500084B5826084BD84B5816084BD85B58260C4
:1009600085BD85B5816085BD80916E008160809375
:100970006E001092810080918100826080938100DE
:1009800080918100816080938100809180008160EE
:10099000809380008091B10084608093B100809149
:1009A000B00081608093B00080917A008460809371
:1009B0007A0080917A00826080937A0080917A0038
:1009C000816080937A0080917A00806880937A00B9
:1009D0001092C100E3E9F1E02491EFE7F1E08491A6
:1009E000882399F090E0880F991FFC01EE59FE4F83
:1009F000A591B491FC01E459FE4F859194918FB774
:100A0000F894EC91E22BEC938FBFE0916801F091A8
:100A1000690182E08083E0916401F09165011082B8
:100A2000E0916601F09167018FEC80831092700174
:100A3000E0916C01F0916D0186E08083E0916A01A4
:100A4000F0916B01808180618083E0916A01F09177
:100A50006B01808188608083E0916A01F0916B0175
:100A6000808180688083E0916A01F0916B018081D0
:100A70008F7D80838EE191E00E94B1028DE291E052
:100A80000E94B10280E00E94050190E1292E97E2C8
:100A9000392E8E010B5D1F4F24E6422E512C87E725
:100AA000682E712C809100018BA768EE73E080E0C6
:100AB00090E00E9472010E9461077C010E94610720
:100AC0006C010E9461075C010E9461074C010E9459
:100AD0006107B1010E94AF0BBC01990F880B990B04
:100AE0000E94AA0920E030E048EC52E40E943D0B4D
:100AF00020E030E0A9010E94D10AAB01BC01CE0187
:100B000001960E948003C40160ED77E00E94AF0B64
:100B1000BC01990F880B990B0E94AA0920E030E0D4
:100B200048EC52E40E943D0B20E030E040EA52E401
:100B30000E94D10AAB01BC01CE0107960E9480033E
:100B4000C50164EC79E00E94AF0BBC01990F880BE2
:100B5000990B0E94AA0920E030E048EC52E40E9480
:100B60003D0B20E030E040EA51E40E94D10AAB01A5
:100B7000BC01CE010D960E948003C60168EE73E0B1
:100B80000E94AF0BBC01990F880B990B0E94AA0918
:100B900020E030E048EC52E40E943D0B20E030E0E1
:100BA00040EA50E40E94D00AAB01BC01CE0143965A
:100BB0000E948003C701B3010E94AF0BBC01990FD3
:100BC000880B990B0E94AA0920E030E048EC52E41F
:100BD0000E943D0B20E030E040E450E40E94D10A46
:100BE000AB01BC01CE0149960E94800318A21F8E62
:100BF0001AA219A21CA21BA241E050E060E371E01E
:100C0000CE014F960E945503BE01675E7F4FCE0115
:100C10004F960E94420362E371E00E942C03BE01E2
:100C20006D5E7F4F0E94420362E371E00E942C03DD
:100C3000BE01635F7F4F0E94420362E371E00E9446
:100C40002C03BE01695F7F4F0E94420362E371E0A3
:100C50000E942C03BE016F5F7F4F0E94420362E33C
:100C600071E00E942C037C01EBA5EDA31EA241E0E4
:100C700050E0B8010E940003811103C0C7010E9427
:100C8000BE0263E471E0C7010E942C031EA21DA2F4
:100C900018A61FA21AA619A68017910759F0FC01E1
:100CA000608171816115710529F044815581C80108
:100CB0000E945503CE014F960E94D002CE01499664
:100CC0000E94D002CE0143960E94D002CE010D9622
:100CD0000E94D002CE0107960E94D002CE0101965A
:100CE0000E94D00249A55AA56DA17EA188E591E098
:100CF0000E94A401C8010E94D00280914E018F5F22
:100D0000853009F443C080934E0188E591E00E944C
:100D10000202892B71F16AE070E080E090E00E94AD
:100D2000720188E591E00E94E001F82E89831A8221
:100D300041E050E0BE016F5F7F4F85EF91E00E9480
:100D40000003F4E6FF1649F18FE6F81659F1E3E6E1
:100D500083E690E0FE1641F18091F9019091FA014D
:100D60008430910530F16FE271E085EF91E00E94EF
:100D7000760380E090E0892B09F494CE0E940E0265
:100D8000882309F48CCE0E94000089CE10924E0177
:100D900084E391E00E94B102B8CF509201014092E9
:100DA0000001DACF8FE690E090930101809300017B
:100DB000D3CF0297F0F2E090F501F090F60165E4F0
:100DC00071E0C7010E94C80D892B21F481E00E94C7
:100DD0000501C9CF68E471E0C7010E94C80D892BE5
:100DE00041F680E0F4CF85EF91E00C94D002EF92D1
:100DF0000F931F93CF93DF93E80134E047FD34E175
:100E0000042E000C550B57FF03C051954195510915
:100E1000E32E022F242FAE010E947107CE01DF9135
:100E2000CF911F910F91EF9008958F929F92AF9263
:100E3000BF92CF92DF92EF92FF92CF93DF93EC01BC
:100E4000688179818A819B81611571058105910590
:100E500021F464E279ED8BE597E02DE133EF41E099
:100E600050E00E94360A49015A019B01AC01A7EAF1
:100E7000B1E40E94550A6B017C01ACEEB4EFA50110
:100E800094010E94630ADC01CB018C0D9D1DAE1DF7
:100E9000BF1DB7FF03C00197A109B048888399839C
:100EA000AA83BB839F77DF91CF91FF90EF90DF9074
:100EB000CF90BF90AF909F908F9008950E9415079C
:100EC000089582E091E00E9415070895B0E0A0E047
:100ED0008093020190930301A0930401B093050154
:100EE0000895A9E0B0E0E7E7F7E00C946E0A6A0124
:100EF000F22EB02E102FFBE3AF2EA01608F41BE34A
:100F00001F5F012F27E0AE014F5F5F4F0E94D008A7
:100F1000BC018981982F9970913009F43FC09BE200
:100F2000E1FC04C09E2D9170E0FC3AC05E2D507132
:100F3000E82FE87083FF46C084E0911101C083E090
:100F4000EF2DE81B8F1508F0E0E0D6018E2F20E290
:100F5000552351F1992329F0D6019C93C60101969E
:100F60006C0196012D5F3F4FE2FE24C08EE4D60156
:100F70008C9391E411969C93119712968C93D901BE
:100F80008E2F90E281111BC0E20FF32FF11D108212
:100F90008EEF9FEF2996ECE00C948A0A9DE2C6CF73
:100FA00090E2C4CF2D9381508111FCCFCE0ED11C85
:100FB000E0E0D0CF8EE6D6018C9391E6DBCF9D9317
:100FC0008150E0CF482F447082FF3DC084E09111F2
:100FD00001C083E08F1510F4EF2DE81BD6018E2F92
:100FE00020E2552309F1992329F0D6019C93C601EB
:100FF00001966C0196012D5F3F4FE2FE1BC089E414
:10100000D6018C938EE411968C93119786E41296F8
:101010008C93D9018E2F90E2882309F4B5CF9D934C
:101020008150FACF2D9381508111FCCFCE0ED11C6F
:10103000E0E0D9CF89E6D6018C938EE611968C93A9
:10104000119786E6E4CF9B0177FF02C030E020E0F5
:10105000A1E0B0E0911102C0B0E0A0E0F90131964A
:10106000AE0FBF1F8B2C912CBB2009F461C0540123
:10107000EFEFAE1ABE0AAA0DBB1DFA161B0619F039
:1010800014F04F2D4A1B511188C0E3FC59C0760162
:10109000A42FB0E2A1114FC0C40ED11C992309F4B2
:1010A0005BC040E0D6011196F60190836D01552397
:1010B00009F448C0012F060F9A81582F507184FF00
:1010C00003C0913309F4015010160CF047C00930E9
:1010D00008F008E0EEE2FE2E5B01A01AB1088501DF
:1010E0009194819491082F3F320729F4D601FC9204
:1010F000F60131966F016217730794F10217130717
:101100007CF5DB01A21BB30BAA24A394B12CAC0E7B
:10111000BD1EAA0DBB1D11968C9121503109D6011F
:10112000119628153905F4F0F60180836D01DBCFA7
:10113000B12CA12CA0CFF701B1937F01A150AACF70
:101140009111B0CFD601942F50E302C05D9391501E
:101150009111FCCFC40ED11C40E0ACCF01E0BACF5E
:1011600080E3DBCF6217730731F4963388F495334D
:1011700011F4552369F0F6018083FD01842F90E27C
:10118000811108C0A40FB11D1C9290E080E002CF35
:1011900081E3F1CF91938150F3CF911183CF8ACF27
:1011A000283008F027E03327DA01990F311D87FD39
:1011B000916000966105710539F432602E5F3D93B0
:1011C00030E32A95E1F708959F3F30F080387105AC
:1011D000610509F03C5F3C5F3D93913008F0806809
:1011E000911DDF93CF931F930F93FF92EF92192FCF
:1011F000987F9695E92F96959695E90FFF27EE53E0
:10120000FF4F99273327EE24FF24A701E70105901C
:101210000894079428F4360FE71EF81E491F511D45
:10122000660F771F881F991F0694A1F705900794F2
:1012300028F4E70EF81E491F561FC11D770F881F9F
:10124000991F661F0694A1F70590079428F4F80EDD
:10125000491F561FC71FD11D880F991F661F771F73
:101260000694A1F70590079420F4490F561FC71F55
:10127000D81F990F661F771F881F0694A9F78491BE
:101280001095177041F0D695C79557954795F794E7
:10129000E7941A95C1F7E8E6F0E068941590159187
:1012A00035916591959105907FE27395E118F10A6A
:1012B000430B560BC90BD009C0F7E10CF11E431FBD
:1012C000561FC91FD01D7EF4703311F48A95E6CFE6
:1012D000E894015030F0080F0AF40027021708F4D0
:1012E000202F2395022F7A3328F079E37D932A95D6
:1012F000E9F710C07D932A9589F60694979567952E
:10130000379517951794E118F10A430B560BC90B43
:10131000D00998F023957E9173957A3308F070E3A5
:101320007C932013B8F77E9170617D9330F08395A4
:1013300071E37D9370E32A95E1F71124EF90FF901C
:101340000F911F91CF91DF91992787FD9095089577
:10135000E89409C097FB3EF490958095709561954F
:101360007F4F8F4F9F4F9923A9F0F92F96E9BB2705
:101370009395F695879577956795B795F111F8CF81
:10138000FAF4BB0F11F460FF1BC06F5F7F4F8F4FEC
:101390009F4F16C0882311F096E911C0772321F0E2
:1013A0009EE8872F762F05C0662371F096E8862F7A
:1013B00070E060E02AF09A95660F771F881FDAF7D1
:1013C000880F9695879597F9089597F99F6780E814
:1013D00070E060E008959FEF80EC089500240A9487
:1013E0001616170618060906089500240A94121600
:1013F0001306140605060895092E0394000C11F433
:10140000882352F0BB0F40F4BF2B11F460FF04C0DF
:101410006F5F7F4F8F4F9F4F089557FD9058440F38
:10142000551F59F05F3F71F04795880F97FB991F43
:1014300061F09F3F79F08795089512161306140600
:10144000551FF2CF4695F1DF08C01616170618068D
:10145000991FF1CF86957105610508940895E89468
:10146000BB2766277727CB0197F90895052E97FBB1
:101470001EF400940E944D0A57FD07D00E949F0A57
:1014800007FC03D04EF40C944D0A509540953095CE
:1014900021953F4F4F4F5F4F0895909580957095E0
:1014A00061957F4F8F4F9F4F08950E94C10AA59F5E
:1014B000900DB49F900DA49F800D911D112408954F
:1014C000B7FF0C94550A0E94550A821B930B08958E
:1014D0002F923F924F925F926F927F928F929F9244
:1014E000AF92BF92CF92DF92EF92FF920F931F9332
:1014F000CF93DF93CDB7DEB7CA1BDB0B0FB6F894E3
:10150000DEBF0FBECDBF09942A88398848885F8422
:101510006E847D848C849B84AA84B984C884DF8093
:10152000EE80FD800C811B81AA81B981CE0FD11D77
:101530000FB6F894DEBF0FBECDBFED010895A1E256
:101540001A2EAA1BBB1BFD010DC0AA1FBB1FEE1F3D
:10155000FF1FA217B307E407F50720F0A21BB30B88
:10156000E40BF50B661F771F881F991F1A9469F704
:1015700060957095809590959B01AC01BD01CF0160
:101580000895A29FB001B39FC001A39F700D811D5C
:101590001124911DB29F700D811D1124911D08957C
:1015A0005058BB27AA270E94E80A0C94FC090E9405
:1015B000EE0938F00E94F50920F039F49F3F19F444
:1015C00026F40C94EB090EF4E095E7FB0C94E50986
:1015D000E92F0E940D0A58F3BA17620773078407B0
:1015E000950720F079F4A6F50C942F0A0EF4E095F7
:1015F0000B2EBA2FA02D0B01B90190010C01CA01CD
:10160000A0011124FF27591B99F0593F50F4503E77
:1016100068F11A16F040A22F232F342F4427585F69
:10162000F3CF469537952795A795F0405395C9F781
:101630007EF41F16BA0B620B730B840BBAF0915039
:10164000A1F0FF0FBB1F661F771F881FC2F70EC0D8
:10165000BA0F621F731F841F48F4879577956795AB
:10166000B795F7959E3F08F0B0CF9395880F08F097
:101670009927EE0F9795879508950E94510B0C942A
:10168000FC090E94F50958F00E94EE0940F029F487
:101690005F3F29F00C94E50951110C94300A0C9429
:1016A000EB090E940D0A68F39923B1F3552391F3D6
:1016B000951B550BBB27AA2762177307840738F0C1
:1016C0009F5F5F4F220F331F441FAA1FA9F335D01E
:1016D0000E2E3AF0E0E832D091505040E695001CD2
:1016E000CAF72BD0FE2F29D0660F771F881FBB1F8C
:1016F000261737074807AB07B0E809F0BB0B802D6A
:10170000BF01FF2793585F4F3AF09E3F510578F095
:101710000C94E5090C94300A5F3FE4F3983ED4F34F
:10172000869577956795B795F7959F5FC9F7880F69
:10173000911D9695879597F90895E1E0660F771FBB
:10174000881FBB1F621773078407BA0720F0621B4C
:10175000730B840BBA0BEE1F88F7E095089597FB87
:10176000072E16F4009407D077FD09D00E94C30B12
:1017700007FC05D03EF4909581959F4F0895709594
:1017800061957F4F0895AA1BBB1B51E107C0AA1F9B
:10179000BB1FA617B70710F0A61BB70B881F991F12
:1017A0005A95A9F780959095BC01CD010895EE0F4B
:1017B000FF1F0590F491E02D09940F931F93CF9391
:1017C000DF938230910510F482E090E0E091FD011A
:1017D000F091FE0130E020E0B0E0A0E0309799F415
:1017E0002115310509F44AC0281B390B2430310575
:1017F000D8F58A819B816115710589F1FB0193837D
:101800008283FE0111C040815181028113814817FA
:101810005907E0F04817590799F4109761F01296AC
:101820000C93129713961C933296CF01DF91CF91B0
:101830001F910F9108950093FD011093FE01F4CFC5
:101840002115310551F04217530738F0A901DB018A
:101850009A01BD01DF01F801C1CFEF01F9CF9093EB
:10186000FE018093FD01CDCFFE01E20FF31F8193B6
:1018700091932250310939832883D7CF2091FB01DE
:101880003091FC01232B41F4209108013091090192
:101890003093FC012093FB01209106013091070158
:1018A0002115310541F42DB73EB740910A01509101
:1018B0000B01241B350BE091FB01F091FC01E217B9
:1018C000F307A0F42E1B3F0B2817390778F0AC0163
:1018D0004E5F5F4F2417350748F04E0F5F1F509340
:1018E000FC014093FB01819391939FCFF0E0E0E0F6
:1018F0009CCFCF93DF930097E9F0FC0132971382DE
:101900001282A091FD01B091FE01ED0130E020E0D6
:101910001097A1F420813181820F931F2091FB0148
:101920003091FC012817390709F061C0F093FC01E0
:10193000E093FB01DF91CF910895EA01CE17DF0715
:10194000E8F54A815B819E0141155105B1F7E90136
:10195000FB83EA8349915991C40FD51FEC17FD070A
:1019600061F4808191810296840F951FE90199832A
:101970008883828193819B838A83F0E0E0E01296E2
:101980008D919C9113970097B9F52D913C911197EA
:10199000CD010296820F931F2091FB013091FC0133
:1019A0002817390739F6309751F51092FE01109239
:1019B000FD01B093FC01A093FB01BCCFD383C28394
:1019C00040815181840F951FC817D90761F44E5F7C
:1019D0005F4F88819981480F591F518340838A81C5
:1019E0009B81938382832115310509F0B0CFF09359
:1019F000FE01E093FD019ECFFD01DC01C0CF13820B
:101A00001282D7CFB0E0A0E0E8E0FDE00C946A0AD3
:101A10008C01009751F4CB010E94DD0B8C01C801B1
:101A2000CDB7DEB7E0E10C94860AFC01E60FF71FA4
:101A30009C0122503109E217F30708F49DC0D90137
:101A4000CD91DC911197C617D70798F0C530D10515
:101A500030F3CE0104978617970708F3C61BD70B00
:101A60002297C193D1936D937C93CF010E94790CFF
:101A7000D6CF5B01AC1ABD0A4C018C0E9D1EA09105
:101A8000FD01B091FE01512C412CF12CE12C10975D
:101A900031F58091FB019091FC018815990509F0C1
:101AA0005CC04616570608F058C080910601909118
:101AB0000701009741F48DB79EB740910A015091FC
:101AC0000B01841B950BE817F90708F055C0F0933C
:101AD000FC01E093FB01F90171836083A0CF8D913C
:101AE0009C91119712966C90129713967C90139775
:101AF000A815B90559F56C0142E0C40ED11CCA14F1
:101B0000DB0420F1AC014A195B09DA011296159742
:101B100080F06282738251834083D9016D937C93FC
:101B2000E114F10471F0D7011396FC93EE93129730
:101B300076CF22968C0F9D1FF90191838083F3014C
:101B4000EFCFF093FE01E093FD0169CF48165906EF
:101B500008F42C017D01D3019ACFCB010E94DD0B4B
:101B60007C01009749F0AE01B8010E94BF0DC80189
:101B70000E94790C870153CF10E000E050CFFB01A9
:101B8000DC0102C001900D9241505040D8F70895F9
:101B9000FB01DC018D91019080190110D9F3990BA3
:101BA0000895FB01DC0101900D920020E1F70895FA
:101BB00010E0CAEDD0E004C0FE010E94D70B2196D0
:0A1BC000CB3DD107C9F7F894FFCF21
:101BCA006F00010000000000FF018000000000001B
:101BDA004402A401D10191020202E001F401536519
:101BEA007269616C2053746172746564000D0A0035
:101BFA003C002C003C566F6C746167653A203233A6
:0C1C0A002E34333E006F6E006F666600E3
:00000001FF
